{
  "contractName": "HelloWorld",
  "abi": [
    {
      "constant": true,
      "inputs": [],
      "name": "sayHello",
      "outputs": [
        {
          "internalType": "string",
          "name": "",
          "type": "string"
        }
      ],
      "payable": false,
      "stateMutability": "pure",
      "type": "function"
    }
  ],
  "bytecode": "0x608060405234801561001057600080fd5b5061011d806100206000396000f3fe6080604052348015600f57600080fd5b506004361060285760003560e01c8063ef5fb05b14602d575b600080fd5b603360ab565b6040518080602001828103825283818151815260200191508051906020019080838360005b8381101560715780820151818401526020810190506058565b50505050905090810190601f168015609d5780820380516001836020036101000a031916815260200191505b509250505060405180910390f35b60606040518060400160405280600d81526020017f68656c6c6f2c20776f726c64210000000000000000000000000000000000000081525090509056fea265627a7a723158207104c752590767de5515a3b23e822db2f55129578a7bef9636c977540cfda51b64736f6c63430005100032",
  "source": "pragma solidity ^0.5.16;\n\n  contract HelloWorld {\n\n    function sayHello() public pure returns(string memory)\n    {\n        return (\"hello, world!\");\n    }\n\n\n   \n}\n\n",
  "sourcePath": "/home/roro/Code/ContractBSC/contracts/HelloWorld.sol",
  "compiler": {
    "name": "solc",
    "version": "0.5.16+commit.9c3226ce.Emscripten.clang"
  },
  "schemaVersion": "3.4.14",
  "updatedAt": "2023-07-03T20:42:19.894Z",
  "networkType": "ethereum",
  "devdoc": {
    "methods": {}
  },
  "userdoc": {
    "methods": {}
  }
}